{
  "contractName": "TareaContrato",
  "abi": [
    {
      "inputs": [],
      "stateMutability": "nonpayable",
      "type": "constructor"
    },
    {
      "inputs": [
        {
          "internalType": "uint256",
          "name": "",
          "type": "uint256"
        }
      ],
      "name": "tareas",
      "outputs": [
        {
          "internalType": "string",
          "name": "",
          "type": "string"
        }
      ],
      "stateMutability": "view",
      "type": "function",
      "constant": true
    },
    {
      "inputs": [
        {
          "internalType": "string",
          "name": "_nuevaTarea",
          "type": "string"
        }
      ],
      "name": "agregarTarea",
      "outputs": [],
      "stateMutability": "nonpayable",
      "type": "function"
    },
    {
      "inputs": [],
      "name": "dameTareas",
      "outputs": [
        {
          "internalType": "string[]",
          "name": "",
          "type": "string[]"
        }
      ],
      "stateMutability": "view",
      "type": "function",
      "constant": true
    },
    {
      "inputs": [
        {
          "internalType": "uint256",
          "name": "_posicion",
          "type": "uint256"
        }
      ],
      "name": "eliminar",
      "outputs": [],
      "stateMutability": "nonpayable",
      "type": "function"
    }
  ],
  "bytecode": "0x608060405234801561001057600080fd5b50600080600181540180825580915050600190039060005260206000200160006040518060400160405280600981526020017f6465736179756e617200000000000000000000000000000000000000000000008152509091909150908051906020019061007e929190610160565b50600080600181540180825580915050600190039060005260206000200160006040518060400160405280600581526020017f636f6d6572000000000000000000000000000000000000000000000000000000815250909190915090805190602001906100ec929190610160565b50600080600181540180825580915050600190039060005260206000200160006040518060400160405280600581526020017f63656e61720000000000000000000000000000000000000000000000000000008152509091909150908051906020019061015a929190610160565b50610264565b82805461016c90610203565b90600052602060002090601f01602090048101928261018e57600085556101d5565b82601f106101a757805160ff19168380011785556101d5565b828001600101855582156101d5579182015b828111156101d45782518255916020019190600101906101b9565b5b5090506101e291906101e6565b5090565b5b808211156101ff5760008160009055506001016101e7565b5090565b6000600282049050600182168061021b57607f821691505b6020821081141561022f5761022e610235565b5b50919050565b7f4e487b7100000000000000000000000000000000000000000000000000000000600052602260045260246000fd5b61081e806102736000396000f3fe608060405234801561001057600080fd5b506004361061004c5760003560e01c8063210344911461005157806352154ba91461006f578063742008661461009f578063f3e30ac3146100bb575b600080fd5b6100596100d7565b60405161006691906105b3565b60405180910390f35b6100896004803603810190610084919061048f565b6101b0565b60405161009691906105d5565b60405180910390f35b6100b960048036038101906100b4919061044e565b61025c565b005b6100d560048036038101906100d0919061048f565b61029b565b005b60606000805480602002602001604051908101604052809291908181526020016000905b828210156101a757838290600052602060002001805461011a906106ff565b80601f0160208091040260200160405190810160405280929190818152602001828054610146906106ff565b80156101935780601f1061016857610100808354040283529160200191610193565b820191906000526020600020905b81548152906001019060200180831161017657829003601f168201915b5050505050815260200190600101906100fb565b50505050905090565b600081815481106101c057600080fd5b9060005260206000200160009150905080546101db906106ff565b80601f0160208091040260200160405190810160405280929190818152602001828054610207906106ff565b80156102545780601f1061022957610100808354040283529160200191610254565b820191906000526020600020905b81548152906001019060200180831161023757829003601f168201915b505050505081565b6000819080600181540180825580915050600190039060005260206000200160009091909190915090805190602001906102979291906102ee565b5050565b600081815481106102d5577f4e487b7100000000000000000000000000000000000000000000000000000000600052603260045260246000fd5b9060005260206000200160006102eb9190610374565b50565b8280546102fa906106ff565b90600052602060002090601f01602090048101928261031c5760008555610363565b82601f1061033557805160ff1916838001178555610363565b82800160010185558215610363579182015b82811115610362578251825591602001919060010190610347565b5b50905061037091906103b4565b5090565b508054610380906106ff565b6000825580601f1061039257506103b1565b601f0160209004906000526020600020908101906103b091906103b4565b5b50565b5b808211156103cd5760008160009055506001016103b5565b5090565b60006103e46103df8461061c565b6105f7565b9050828152602081018484840111156103fc57600080fd5b6104078482856106bd565b509392505050565b600082601f83011261042057600080fd5b81356104308482602086016103d1565b91505092915050565b600081359050610448816107d1565b92915050565b60006020828403121561046057600080fd5b600082013567ffffffffffffffff81111561047a57600080fd5b6104868482850161040f565b91505092915050565b6000602082840312156104a157600080fd5b60006104af84828501610439565b91505092915050565b60006104c48383610541565b905092915050565b60006104d78261065d565b6104e18185610680565b9350836020820285016104f38561064d565b8060005b8581101561052f578484038952815161051085826104b8565b945061051b83610673565b925060208a019950506001810190506104f7565b50829750879550505050505092915050565b600061054c82610668565b6105568185610691565b93506105668185602086016106cc565b61056f816107c0565b840191505092915050565b600061058582610668565b61058f81856106a2565b935061059f8185602086016106cc565b6105a8816107c0565b840191505092915050565b600060208201905081810360008301526105cd81846104cc565b905092915050565b600060208201905081810360008301526105ef818461057a565b905092915050565b6000610601610612565b905061060d8282610731565b919050565b6000604051905090565b600067ffffffffffffffff82111561063757610636610791565b5b610640826107c0565b9050602081019050919050565b6000819050602082019050919050565b600081519050919050565b600081519050919050565b6000602082019050919050565b600082825260208201905092915050565b600082825260208201905092915050565b600082825260208201905092915050565b6000819050919050565b82818337600083830152505050565b60005b838110156106ea5780820151818401526020810190506106cf565b838111156106f9576000848401525b50505050565b6000600282049050600182168061071757607f821691505b6020821081141561072b5761072a610762565b5b50919050565b61073a826107c0565b810181811067ffffffffffffffff8211171561075957610758610791565b5b80604052505050565b7f4e487b7100000000000000000000000000000000000000000000000000000000600052602260045260246000fd5b7f4e487b7100000000000000000000000000000000000000000000000000000000600052604160045260246000fd5b6000601f19601f8301169050919050565b6107da816106b3565b81146107e557600080fd5b5056fea2646970667358221220af8c3544f5ab7b1b63df56b230464b7b42a1fde9943ef7cfb976a9f08c99324e64736f6c63430008040033",
  "immutableReferences": {},
  "source": "\r\n// SPDX-License-Identifier: MIT\r\npragma solidity ^0.8.4;\r\n\r\ncontract TareaContrato{\r\n    string [] public tareas;\r\n\r\n    constructor(){\r\n        tareas.push(\"desayunar\");\r\n        tareas.push(\"comer\");\r\n        tareas.push(\"cenar\");\r\n    }\r\n\r\n\r\n\r\n    function agregarTarea(string memory _nuevaTarea) public{\r\n        tareas.push(_nuevaTarea);\r\n    }\r\n\r\n    function dameTareas() public view returns (string [] memory){\r\n        return tareas;\r\n    }\r\n\r\n    function eliminar(uint _posicion) public {\r\n        delete tareas[_posicion];\r\n    }\r\n\r\n}",
  "sourcePath": "C:\\Users\\Remoto\\Documents\\Melvin\\Mis cosas\\Tareas\\src\\contracts\\TareaContrato.sol",
  "compiler": {
    "name": "solc",
    "version": "0.8.4+commit.c7e474f2.Emscripten.clang"
  },
  "schemaVersion": "3.4.16",
  "updatedAt": "2024-11-08T10:47:47.990Z",
  "networkType": "ethereum",
  "devdoc": {
    "kind": "dev",
    "methods": {},
    "version": 1
  },
  "userdoc": {
    "kind": "user",
    "methods": {},
    "version": 1
  }
}